{
  "contractName": "Election",
  "abi": [
    {
      "constant": true,
      "inputs": [],
      "name": "candidatesCount",
      "outputs": [
        {
          "name": "",
          "type": "uint256"
        }
      ],
      "payable": false,
      "stateMutability": "view",
      "type": "function"
    },
    {
      "constant": true,
      "inputs": [
        {
          "name": "",
          "type": "uint256"
        }
      ],
      "name": "candidates",
      "outputs": [
        {
          "name": "id",
          "type": "uint256"
        },
        {
          "name": "name",
          "type": "string"
        },
        {
          "name": "voteCount",
          "type": "uint256"
        }
      ],
      "payable": false,
      "stateMutability": "view",
      "type": "function"
    },
    {
      "inputs": [],
      "payable": false,
      "stateMutability": "nonpayable",
      "type": "constructor"
    }
  ],
  "bytecode": "0x608060405234801561001057600080fd5b5060006001819055506100666040805190810160405280600781526020017f43616e64692031000000000000000000000000000000000000000000000000008152506100b8640100000000026401000000009004565b6100b36040805190810160405280600781526020017f43616e64692032000000000000000000000000000000000000000000000000008152506100b8640100000000026401000000009004565b6101d9565b606060405190810160405280600154815260200182815260200160008152506000806001548152602001908152602001600020600082015181600001556020820151816001019080519060200190610111929190610134565b506040820151816002015590505060016000815480929190600101919050555050565b828054600181600116156101000203166002900490600052602060002090601f016020900481019282601f1061017557805160ff19168380011785556101a3565b828001600101855582156101a3579182015b828111156101a2578251825591602001919060010190610187565b5b5090506101b091906101b4565b5090565b6101d691905b808211156101d25760008160009055506001016101ba565b5090565b90565b610224806101e86000396000f30060806040526004361061004c576000357c0100000000000000000000000000000000000000000000000000000000900463ffffffff1680632d35a8a2146100515780633477ee2e1461007c575b600080fd5b34801561005d57600080fd5b50610066610130565b6040518082815260200191505060405180910390f35b34801561008857600080fd5b506100a760048036038101908080359060200190929190505050610136565b6040518084815260200180602001838152602001828103825284818151815260200191508051906020019080838360005b838110156100f35780820151818401526020810190506100d8565b50505050905090810190601f1680156101205780820380516001836020036101000a031916815260200191505b5094505050505060405180910390f35b60015481565b6000602052806000526040600020600091509050806000015490806001018054600181600116156101000203166002900480601f0160208091040260200160405190810160405280929190818152602001828054600181600116156101000203166002900480156101e85780601f106101bd576101008083540402835291602001916101e8565b820191906000526020600020905b8154815290600101906020018083116101cb57829003601f168201915b50505050509080600201549050835600a165627a7a723058208058422e69d418d9b9fb90156967dd85f32cf28e04bd07f276d29815507478ff0029",
  "source": "pragma solidity 0.4.22;\r\n\r\ncontract Election {\r\n\r\n    struct Candidate {\r\n        uint id;\r\n        string name;\r\n        uint voteCount;\r\n    }\r\n\r\n    mapping(uint => Candidate) public candidates;\r\n\r\n    uint public candidatesCount;\r\n\r\n    function addCandidate (string _name) private {\r\n        candidates[candidatesCount] = Candidate(candidatesCount, _name, 0);\r\n        candidatesCount++;\r\n    }\r\n\r\n    // Constructor\r\n    function Election () public {\r\n        candidatesCount = 0;\r\n        addCandidate(\"Candi 1\");\r\n        addCandidate(\"Candi 2\");\r\n    }\r\n}",
  "sourcePath": "c:\\Projects\\election-eth\\contracts\\Election.sol",
  "compiler": {
    "name": "solc",
    "version": "0.4.22+commit.4cb486ee.Emscripten.clang"
  },
  "schemaVersion": "3.4.2",
  "updatedAt": "2021-08-07T12:02:43.854Z",
  "networkType": "ethereum",
  "devdoc": {
    "methods": {}
  },
  "userdoc": {
    "methods": {}
  }
}